:100000000C945D000C9485000C9485000C94850084
:100010000C9485000C9485000C9485000C9485004C
:100020000C9485000C9485000C9485000C9485003C
:100030000C9485000C9485000C9485000C9485002C
:100040000C944A020C9485000C94BA020C9494020D
:100050000C9485000C9485000C9485000C9485000C
:100060000C9485000C9485000000000024002700FB
:100070002A0000000000250028002B0004040404CE
:100080000404040402020202020203030303030342
:10009000010204081020408001020408102001021F
:1000A00004081020000000080002010000030407FB
:1000B0000000000000000000F10311241FBECFEF7C
:1000C000D8E0DEBFCDBF11E0A0E0B1E0EAE9F8E0A2
:1000D00002C005900D92A432B107D9F721E0A4E245
:1000E000B1E001C01D92AC3CB207E1F710E0CDE5F4
:1000F000D0E004C02197FE010E944004CC35D10716
:10010000C9F70E94EC020C944B040C940000E1EB44
:10011000F0E02491EDE9F0E09491E9E8F0E0E49179
:10012000EE2309F43BC0222339F1233091F038F457
:100130002130A9F0223001F524B52F7D12C02730DF
:1001400091F02830A1F02430B9F4209180002F7D67
:1001500003C0209180002F77209380000DC024B52C
:100160002F7724BD09C02091B0002F7703C02091C4
:10017000B0002F7D2093B000F0E0EE0FFF1FEE588F
:10018000FF4FA591B4912FB7F894EC91811103C062
:1001900090959E2301C09E2B9C932FBF08953FB73F
:1001A000F89480912B0190912C01A0912D01B09198
:1001B0002E0126B5A89B05C02F3F19F00196A11D61
:1001C000B11D3FBFBA2FA92F982F8827820F911DED
:1001D000A11DB11DBC01CD0142E0660F771F881F34
:1001E000991F4A95D1F708958F929F92AF92BF922F
:1001F000CF92DF92EF92FF920E94CF004B015C0101
:1002000088EEC82E83E0D82EE12CF12C0E94CF007E
:10021000DC01CB0188199909AA09BB09883E9340E2
:10022000A105B10558F021E0C21AD108E108F10892
:1002300088EE880E83E0981EA11CB11CC114D10465
:10024000E104F10419F7FF90EF90DF90CF90BF9099
:10025000AF909F908F900895CF92DF92EF92FF9290
:100260000F931F93CF93DF936C017A018B01C0E052
:10027000D0E0CE15DF0589F0D8016D918D01D60152
:10028000ED91FC910190F081E02DC6010995892B3B
:1002900011F47E0102C02196ECCFC701DF91CF910E
:1002A0001F910F91FF90EF90DF90CF9008950895E8
:1002B00080E090E00895FC01538D448D252F30E0BF
:1002C000842F90E0821B930B541710F0CF96089563
:1002D00001970895FC01918D828D981761F0828DB0
:1002E000DF01A80FB11D5D968C91928D9F5F9F736A
:1002F000928F90E008958FEF9FEF0895FC01918D0C
:10030000828D981731F0828DE80FF11D858D90E078
:1003100008958FEF9FEF0895FC01918D228D892F15
:1003200090E0805C9F4F821B91098F7399270895FD
:100330008FE291E00E948C0121E0892B09F420E0FA
:10034000822F0895FC01848DDF01A80FB11DA35AEF
:10035000BF4F2C91848D90E001968F739927848FE5
:10036000A689B7892C93A089B1898C9180648C93DC
:10037000938D848D981306C00288F389E02D8081C7
:100380008F7D80830895EF92FF920F931F93CF93F9
:10039000DF93EC0181E0888F9B8D8C8D981305C0D5
:1003A000E889F989808185FD24C0F62E0B8D10E047
:1003B0000F5F1F4F0F731127E02E8C8DE8120CC0BA
:1003C0000FB607FCFACFE889F989808185FFF5CF60
:1003D000CE010E94A201F1CF8B8DFE01E80FF11D2D
:1003E000E35AFF4FF0820B8FEA89FB89808180629C
:1003F00007C0EE89FF896083E889F989808180647C
:10040000808381E090E0DF91CF911F910F91FF9069
:10041000EF900895CF93DF93EC01888D8823C9F086
:10042000EA89FB89808185FD05C0A889B9898C91FD
:1004300086FD0FC00FB607FCF5CF808185FFF2CF98
:10044000A889B9898C9185FFEDCFCE010E94A201C8
:10045000E7CFDF91CF91089580E090E0892B29F0DC
:100460000E94980181110C9400000895009769F092
:10047000FC0101900020E9F73197AF01481B590BAF
:10048000BC018FE291E00C942C0180E090E0089593
:100490000E9446041F920F920FB60F9211242F93C1
:1004A0003F938F939F93AF93BF9380912701909138
:1004B0002801A0912901B0912A013091260123E061
:1004C000230F2D3720F40196A11DB11D05C026E88C
:1004D000230F0296A11DB11D2093260180932701B1
:1004E00090932801A0932901B0932A0180912B01B8
:1004F00090912C01A0912D01B0912E010196A11D8A
:10050000B11D80932B0190932C01A0932D01B093EA
:100510002E01BF91AF919F918F913F912F910F909D
:100520000FBE0F901F9018951F920F920FB60F924B
:1005300011242F933F934F935F936F937F938F93E8
:100540009F93AF93BF93EF93FF938FE291E00E944D
:10055000A201FF91EF91BF91AF919F918F917F91F8
:100560006F915F914F913F912F910F900FBE0F9020
:100570001F9018951F920F920FB60F9211242F9370
:100580008F939F93EF93FF93E0913F01F091400190
:100590008081E0914501F091460182FD12C0908179
:1005A000809148018F5F8F7320914901821751F02C
:1005B000E0914801F0E0E15DFE4F958F80934801A6
:1005C00001C08081FF91EF919F918F912F910F90AA
:1005D0000FBE0F901F901895CF93DF93CDB7DEB766
:1005E000A1970FB6F894DEBF0FBECDBF789484B547
:1005F000826084BD84B5816084BD85B5826085BD1F
:1006000085B5816085BD80916E00816080936E00AC
:10061000109281008091810082608093810080919E
:10062000810081608093810080918000816080934F
:1006300080008091B10084608093B1008091B0000F
:1006400081608093B00080917A00846080937A000A
:1006500080917A00826080937A0080917A00816034
:1006600080937A0080917A00806880937A0010925B
:10067000C100E0913F01F091400182E08083E09170
:100680003B01F0913C011082E0913D01F0913E016F
:1006900080E1808310924701E0914301F091440191
:1006A00086E08083E0914101F09142018081806188
:1006B0008083E0914101F0914201808188608083D4
:1006C000E0914101F0914201808180688083E09156
:1006D0004101F091420180818F7D8083EDE9F0E05E
:1006E0002491E9E8F0E08491882399F090E0880F64
:1006F000991FFC01E859FF4FA591B491FC01EE58F8
:10070000FF4F859194918FB7F894EC91E22BEC9385
:100710008FBF8AE0882E912CA12CB12C82E191E030
:100720000E943602C0902401D0902501C601019696
:1007300090932501809324010D2C000CEE08FF08F6
:10074000F7FE26C0E0912F01F09130010190F08179
:10075000E02D6DE28FE291E0099522273327A90170
:100760002C193D094E095F0919A28E010F5D1F4F1B
:10077000CA01B901A50194010E941E04605DF8013F
:1007800062938F01211531054105510589F715C087
:10079000A701960119A28E010F5D1F4FCA01B90171
:1007A000A50194010E941E04605DF80162938F010F
:1007B000211531054105510589F7C8010E9436020E
:1007C00081E291E00E94360281E00E9487000E944F
:1007D000F40080E00E9487000E94F4000E942C0236
:1007E0009DCFEFE2F1E01382128288EE93E0A0E069
:1007F000B0E084839583A683B78384E091E09183FE
:10080000808385EC90E09587848784EC90E09787DF
:10081000868780EC90E0918B808B81EC90E0938BCD
:10082000828B82EC90E0958B848B86EC90E0978BAA
:10083000868B118E128E138E148E0895A1E21A2EBD
:10084000AA1BBB1BFD010DC0AA1FBB1FEE1FFF1F74
:10085000A217B307E407F50720F0A21BB30BE40BC4
:10086000F50B661F771F881F991F1A9469F760950B
:100870007095809590959B01AC01BD01CF010895C5
:10088000EE0FFF1F0590F491E02D099481E090E0B8
:0A089000F8940C944B04F894FFCF89
:10089A0000000000C3012C015B010A028C016A01FD
:1008AA007E0141726475696E6F2048656C6C6F20B9
:0408BA00000D0A0023
:00000001FF
